:060000000A128A110C280F
:10000800FE00030EF1000A08F2000A128A118C2879
:100018000A128A110F28F801F901FA0183010A125C
:100028008A111628831603130F168F160F17E83038
:100038008B00981618128312031398171816831634
:1000480003138C16831203138C120C3083160313BC
:100058009900831603178801890183160313860103
:1000680088018312031385018601870188018901AC
:100078007A03031D402841284F280B3083120313AD
:10008800A0002008F30000300A128A11B7200A12D3
:100098008A11FA01622802307A06031D542855286D
:1000A8006228063083120313A0002008F3000030F2
:1000B8000A128A11B7200A128A114D287803031DE3
:1000C80066286728732800300A128A11DD200A1270
:1000D8008A1183120313A0002008F900F8010B30DD
:1000E8007906031D782879287E2883120313881738
:1000F80008133C2806307906031D832884283C28E9
:1001080083120313881308173C280A128A110C2833
:10011800831203138C1E91289228B0288C127030F9
:100128001A06031D982899289C28FA01FA0AB0286B
:100138006F301A06031DA128A228A7280230F00054
:100148007008FA00B02872301A06031DAC28AD28D2
:10015800B028F801F80AB02872088A00710E8300E6
:10016800FE0E7E0E0900F7008312031308157708A8
:10017800831203178D0073088C00831603178C13E2
:100188000C158B1355308D00AA308D008C148B17ED
:100198000230F6000430F500BA30F400F40BD2282F
:1001A800F50BD228F60BD2280000831603170C1182
:1001B8000800F3007308831203178D0083160317D2
:0C01C8008C130C14831203170C080800A1
:04400E00D520FF3F7B
:00000001FF
