:060000000A128A110C280F
:10000800FE00030EF1000A08F2000A128A112C29D8
:100018000A128A110F280A128A1180230A128A11D9
:10002800B6000A128A1181230A128A11B7000A122D
:100038008A1182230A128A11B8000A128A118323AC
:100048000A128A11F8000A128A1184230A128A11E4
:10005800F900AE01AF01B001B101B201B301B401C1
:10006800B501FA0183010A128A11FA2A83120313CD
:100078003608031D40284128B428FF30A20000306C
:10008800A3003108AA00AB012A08F3002B08F400EA
:10009800AF30F5000030F6000A128A1155230A1213
:1000A8008A11740883120313A5007308A4000A12A6
:1000B8008A1191220A128A118312031322082A3EF6
:1000C800AC002C08B400FF30A2000030A3003008B8
:1000D800AA00AB012A08F3002B08F400AF30F500A2
:1000E8000030F6000A128A1155230A128A11740880
:1000F80083120313A5007308A4000A128A1191221F
:100108000A128A118312031322082A3EAC002C0813
:10011800B300FF30A2000030A3002F08AA00AB01F3
:100128002A08F3002B08F400AF30F5000030F60081
:100138000A128A1155230A128A11740883120313AA
:10014800A5007308A4000A128A1191220A128A11C2
:100158008312031322082A3EAC002C08B2002B2974
:100168003603031DB828B9282B29FF30A200003018
:10017800A3007908AA00AB012A08F3002B08F400B1
:10018800AF30F5000030F6000A128A1155230A1222
:100198008A11740883120313A5007308A4000A12B5
:1001A8008A1191220A128A118312031322082A3E05
:1001B800AC002C08B400FF30A2000030A30078087F
:1001C800AA00AB012A08F3002B08F400AF30F500B1
:1001D8000030F6000A128A1155230A128A1174088F
:1001E80083120313A5007308A4000A128A1191222E
:1001F8000A128A118312031322082A3EAC002C0823
:10020800B300FF30A2000030A3003708AA00AB01FA
:100218002A08F3002B08F400AF30F5000030F60090
:100228000A128A1155230A128A11740883120313B9
:10023800A5007308A4000A128A1191220A128A11D1
:100248008312031322082A3EAC002C08B2000800CF
:100258000B1D2F29302983290B118312031338080A
:100268008100B501081448290130F0007008B5076D
:100278000130F0007008B5070130B5020130F00018
:100288007008B5070130B5023508340203184D2946
:100298004E2938290810B501881462290130F00068
:1002A8007008B5070130F0007008B5070130B502D5
:1002B8000130F0007008B5070130B5023508330287
:1002C80003186729682952298810B50108157C295F
:1002D8000130F0007008B5070130F0007008B5076C
:1002E8000130B5020130F0007008B5070130B502E1
:1002F800350832020318812982296C2908118312D2
:1003080003130C1F88298929C4290C131F0CF0001A
:10031800700C0F39003A031D922993299C291E0855
:10032800F0007008B1001F08C33904389F00BD29C8
:100338001F0CF000700C0F39013A031DA429A529E0
:10034800AE291E08F0007008B0001F08C33908382D
:100358009F00BD291F0CF000700C0F39023A031DD5
:10036800B629B729BD291E08F0007008AF00C330B0
:100378009F052130F000F00BBF29831203139F144F
:100388008C1EC729C829092A8C121A08F00070087F
:10039800FA0031301A06031DD229D329D629AE0115
:1003A800AE0A092A32301A06031DDB29DC29E129A5
:1003B8000230F0007008AE00092A33301A06031D17
:1003C800E629E729EC290330F0007008AE00092A75
:1003D80034301A06031DF129F229F429B601092A35
:1003E80035301A06031DF929FA29092AB601B60A71
:1003F8003108F0007008F9003008F0007008F800C3
:100408002F08F0007008B700092A72088A00710ED8
:100418008300FE0E7E0E0900831203132E03031DB4
:10042800162A172A3C2A77307A06031D1C2A1D2A09
:100438002A2AFB3079020318222A232A8F2A7908CC
:10044800053EF3007308F9008F2A8F2A71307A0667
:10045800031D2F2A302A8F2A05307902031C352ADA
:10046800362A292A7908FB3EF3007308F9008F2AF7
:1004780002302E06031D412A422A662A77307A0660
:10048800031D472A482A542AFB30780203184D2AAC
:100498004E2A8F2A7808053EF3007308F8008F2A41
:1004A80071307A06031D592A5A2A8F2A0530780294
:1004B800031C5F2A602A292A7808FB3EF300730888
:1004C800F8008F2A03302E06031D6B2A6C2A8F2A08
:1004D80077307A06031D712A722A7E2AFB3037028A
:1004E8000318772A782A8F2A3708053EF3007308FD
:1004F800B7008F2A71307A06031D832A842A8F2A2F
:1005080005303702031C892A8A2A292A3708FB3E24
:10051800F3007308B700FA01080083120313A70158
:10052800A31F972A982A9F2AA209A309A20A031996
:10053800A30AA701A70AA51FA22AA32AAC2AA409CD
:10054800A509A40A0319A50A0130F7007708A70628
:10055800A801A901220823040319B32AB42AEB2A03
:10056800A601A60AC22A01300310A20DA30DFF3E60
:10057800031DB82A0130F7007708A607A31FC52A6C
:10058800C62AB72A01300310A80DA90DFF3E031D86
:10059800C72A23082502031DD32A22082402031C84
:1005A800D62AD72ADE2A2208A4022308031CA50378
:1005B800A502281401300310A30CA20CFF3E031D52
:1005C800DF2A0130A602031DEA2AEB2AC62A2708D9
:1005D8000319EF2AF02AF52AA809A909A80A031974
:1005E800A90A2908A3002808A200080083160313F3
:1005F8000F168F160F1798161812831203139817D1
:100608001816831603138C16831203138C120C30DE
:1006180083160313990001148114011581128111A5
:10062800A8308B0083120313380881008316031344
:100638000C17831203130C13831603139F131F1233
:100648001F12831203131F139F171F1420308312C6
:100658000313AD00AD0B2E2B0000831203139F1460
:1006680007308316031788008901FF3083160313A8
:10067800850086018801890183120313850186019B
:100688008701880189010A128A1110220A128A1127
:100698000A128A113A200A128A11472B0A128A1161
:1006A8000C2883120313A001A101731C5C2B5D2B82
:1006B800652B750883120313A0070318A10A76088F
:1006C800A10701300310F50DF60DFF3E031D662B43
:1006D80001300310F40CF30CFF3E031D6D2B73085F
:1006E8007404031D782B792B592B831203132108CB
:1006F800F4002008F300080001347F3464347F34A8
:020708007F343C
:04400E00D520FF3F7B
:00000001FF
