:060000000A128A11122809
:10000800FE00030EF6000408F7000A08F800831241
:1000180003137F08F9000A128A113B280A128A1171
:1000280015280A128A11FC250A128A11B9000A1227
:100038008A11FD250A128A11BA000A128A11FE25B0
:100048000A128A11BB000A128A11FF250A128A11A4
:10005800BC00B301B401B501B601B701B801FA019A
:10006800FB01FC01FD0183010A128A11762C0B1D8C
:100078003E283F2890280B113C088100FD010814F8
:1000880055280130F5007508FD070130F5007508A1
:10009800FD070130FD020130F5007508FD0701304C
:1000A800FD027D08380203185A285B2845280810E5
:1000B800FD0188146F280130F5007508FD0701302F
:1000C800F5007508FD070130FD020130F5007508DF
:1000D800FD070130FD027D083702031874287528D2
:1000E8005F288810FD01081589280130F50075087A
:1000F800FD070130F5007508FD070130FD020130EC
:10010800F5007508FD070130FD027D083602031869
:100118008E288F28792808110C1F93289428CF2817
:100128000C131F0CF500750C0F39003A031D9D28A0
:100138009E28A7281E08F5007508B5001F08C339B2
:1001480004389F00C8281F0CF500750C0F39013AB8
:10015800031DAF28B028B9281E08F5007508B4009B
:100168001F08C33908389F00C8281F0CF500750CF4
:100178000F39023A031DC128C228C8281E08F500F5
:100188007508B300C3309F052130F500F50BCA2868
:10019800831203139F148C1ED228D3287C298C1217
:1001A8001A08F5007508FB0031301A06031DDD2812
:1001B800DE28FD28FC01FC0A7A03031DE428E52853
:1001C8007C293C30F0008230F1000A128A117B252C
:1001D8000A128A113E30F0008230F1000A128A11A8
:1001E8007B250A128A110A128A11E9250A128A1134
:1001F8007C2932301A06031D0229032924290230DA
:10020800F5007508FC007A03031D0B290C297C29CD
:100218003C30F0008230F1000A128A117B250A1264
:100228008A116630F0008230F1000A128A117B25AB
:100238000A128A110A128A11E9250A128A117C29DE
:1002480033301A06031D29292A294B290330F500C2
:100258007508FC007A03031D322933297C293C30B8
:10026800F0008230F1000A128A117B250A128A11E5
:100278008E30F0008230F1000A128A117B250A12B2
:100288008A110A128A11E9250A128A117C29343046
:100298001A06031D502951295329FA017C293530A2
:1002A8001A06031D582959297C29FA01FA0A3C30F3
:1002B800F0008230F1000A128A117B250A128A1195
:1002C800B630F0008230F1000A128A117B250A123A
:1002D8008A11831203133508F5007508BB0034082A
:1002E800F5007508BA003308F5007508B9007C29CF
:1002F800790883120313FF0078088A0077088400BE
:10030800760E8300FE0E7E0E0900FF1B93298313D1
:100318007F1883170008840A0319FF0A08007F085A
:0E0328007F398A000408840A0319FF0A820044
:10040000433461346D34623469346134723420347D
:1004100063346F346E34743472346F346C343A3401
:10042000203443346F346E34743472346F346C342B
:10043000203463346F346E342034553453344134B3
:100440005234543420342834353429342C34203474
:1004500043346F346E34743472346F346C342034FB
:1004600063346F346E3420344134443443342034A4
:1004700028343434293420340D3400345334453492
:10048000523456344F34203431343A3420345734D3
:10049000203449346E346334723465346D346534D9
:1004A0006E347434613472342C342034513420343A
:1004B000443465346334723465346D3465346E3479
:1004C00074346134723420340D3400345334453480
:1004D000523456344F34203432343A342034573482
:1004E000203449346E346334723465346D34653489
:1004F0006E347434613472342C34203451342034EA
:10050000443465346334723465346D3465346E3428
:1005100074346134723420340D340034533445342F
:10052000523456344F34203433343A342034573430
:10053000203449346E346334723465346D34653438
:100540006E347434613472342C3420345134203499
:10055000443465346334723465346D3465346E34D8
:1005600074346134723420340D34003453344534DF
:10057000523456344F34203461342034733465346B
:100580006C3465346334633469346F346E3461348D
:1005900072343A3420342834313429342034283425
:1005A0003234293420342834333429343A34203452
:1005B0000D34003443346F346E34743472346F3419
:1005C0006C342034643465346634613475346C348E
:1005D0007434203465347334203470346F3472349E
:1005E000203441344434433420340D3400347A0808
:1005F000031DFB2AFC2A712BFF3083120313A60074
:100600000030A7003508AF00B0012F08A000300867
:10061000A100AF30A2000030A3000A128A11AB255E
:100620000A128A11831203132108A9002008A800C6
:100630000A128A11DF240A128A1183120313260870
:100640002A3EB1003108B800FF30A6000030A700F4
:100650003408AF00B0012F08A0003008A100AF306F
:10066000A2000030A3000A128A11AB250A128A11D7
:10067000831203132108A9002008A8000A128A1176
:10068000DF240A128A118312031326082A3EB100BE
:100690003108B700FF30A6000030A7003308AF00D4
:1006A000B0012F08A0003008A100AF30A200003038
:1006B000A3000A128A11AB250A128A1183120313AE
:1006C0002108A9002008A8000A128A11DF240A12B2
:1006D0008A118312031326082A3EB1003108B6009E
:1006E000EA2B7A03031D752B762BEA2BFF3083123E
:1006F0000313A6000030A7003B08AF00B0012F088D
:10070000A0003008A100AF30A2000030A3000A1200
:100710008A11AB250A128A11831203132108A9003A
:100720002008A8000A128A11DF240A128A118312F3
:10073000031326082A3EB1003108B800FF30A60096
:100740000030A7003A08AF00B0012F08A000300821
:10075000A100AF30A2000030A3000A128A11AB251D
:100760000A128A11831203132108A9002008A80085
:100770000A128A11DF240A128A118312031326082F
:100780002A3EB1003108B700FF30A6000030A700B4
:100790003908AF00B0012F08A0003008A100AF3029
:1007A000A2000030A3000A128A11AB250A128A1196
:1007B000831203132108A9002008A8000A128A1135
:1007C000DF240A128A118312031326082A3EB1007D
:1007D0003108B60008007C03031DEF2BF02B192C09
:1007E00077307B06031DF52BF62B052CFB3083128F
:1007F00003133B020318FD2BFE2B742C3B08053E14
:10080000A0002008BB00742C742C71307B06031DE3
:100810000A2C0B2C742C0530831203133B02031C8F
:10082000122C132C042C3B08FB3EA0002008BB001C
:10083000742C02307C06031D1E2C1F2C472C773095
:100840007B06031D242C252C332CFB308312031331
:100850003A0203182C2C2D2C742C3A08053EA000CB
:100860002008BA00742C71307B06031D382C392CFB
:10087000742C0530831203133A02031C402C412CC4
:10088000042C3A08FB3EA0002008BA00742C033068
:100890007C06031D4C2C4D2C742C77307B06031DDD
:1008A000522C532C612CFB30831203133902031892
:1008B0005A2C5B2C742C3908053EA0002008B90086
:1008C000742C71307B06031D662C672C742C05304C
:1008D000831203133902031C6E2C6F2C042C39086D
:1008E000FB3EA0002008B900FB010800831603139B
:1008F0000F168F160F1798161812831203139817D6
:100900001816831603138C16831203138C120C30E3
:1009100083160313990001148114011581128111AA
:10092000A8308B00831203133C0881008316031345
:100930000C17831203130C13831603139F131F1238
:100940001F12831203131F139F171F1420308312CB
:100950000313B200B20BAA2C0000831203139F14DE
:1009600007308316031788008901FF3083160313AD
:1009700085008601880189018312031385018601A0
:10098000870188018901DA30A0008230A1000A12B3
:100990008A1148250A128A110A128A11D2250A12CE
:1009A0008A110A128A11EB230A128A110A128A1179
:1009B000F7220A128A11D12C0A128A1112288312E4
:1009C0000313AC01A71FE52CE62CED2CA609A70903
:1009D000A60A0319A70AAC01AC0AA91FF02CF12C36
:1009E000FA2CA809A909A80A0319A90A0130AA0022
:1009F0002A08AC06AD01AE01260827040319012D13
:100A0000022D392DAB01AB0A102D01300310A60DBC
:100A1000A70DFF3E031D062D0130AA002A08AB07D3
:100A2000A71F132D142D052D01300310AD0DAE0D94
:100A3000FF3E031D152D27082902031D212D260821
:100A40002802031C242D252D2C2D2608A80227085A
:100A5000031CA903A9022D1401300310A70CA60C36
:100A6000FF3E031D2D2D0130AB02031D382D392D06
:100A7000142D2C0803193D2D3E2D432DAD09AE0933
:100A8000AD0A0319AE0A2E08A7002D08A60008001B
:100A900083120313A401672D240820078400210872
:100AA0000318210AFF000A128A1189210A128A11E9
:100AB00099000130A2002208A40703308312031317
:100AC000A3009730A200A20B632DA30B632D83120A
:100AD000031324082007840021080318210AFF00BB
:100AE0000A128A1189210A128A11003A031D792DEE
:100AF0007A2D4C2D0800F401972D7408700784009E
:100B000071080318710AFF000A128A1189210A125A
:100B10008A1199000130F2007208F4070330F300E3
:100B20009730F200F20B922DF30B922D972D740853
:100B30007007840071080318710A83120313FF0001
:100B40000A128A1189210A128A11003A031DA92D5D
:100B5000AA2D7D2D080083120313A401A501201CDA
:100B6000B22DB32DB92D2208A4070318A50A230816
:100B7000A50701300310A20DA30DFF3E031DBA2DE2
:100B800001300310A10CA00CFF3E031DC12D200855
:100B90002104031DCC2DCD2DAF2D2508A100240847
:100BA000A0000800003083120313A0008230A100CF
:100BB0000A128A1148250A128A113C308312031343
:100BC000A0008230A1000A128A1148250A128A1157
:100BD00008000030F0008230F1000A128A117B25F3
:100BE0000A128A113C30F0008230F1000A128A1198
:100BF0007B250A128A1108007F347F347F346434E5
:04400E00D520FF3F7B
:00000001FF
