:060000000A128A110C280F
:10000800FE00030EF1000A08F2000A128A11ED2818
:100018000A128A110F280A128A1173210A128A11E8
:10002800FA00AD01AE01F801F90183010A128A1143
:10003800862883120313A701A31F232824282B280B
:10004800A209A309A20A0319A30AA701A70AA51FBF
:100058002E282F283828A409A509A40A0319A50AB7
:100068000130F7007708A706A801A9012208230490
:1000780003193F2840287728A601A60A4E280130F0
:100088000310A20DA30DFF3E031D44280130F70005
:100098007708A607A31F51285228432801300310C8
:1000A800A80DA90DFF3E031D532823082502031D93
:1000B8005F2822082402031C622863286A28220871
:1000C800A4022308031CA503A50228140130031069
:1000D800A30CA20CFF3E031D6B280130A602031DD2
:1000E800762877285228270803197B287C28812816
:1000F800A809A909A80A0319A90A2908A300280810
:10010800A2000800831603130F168F160F17011489
:100118008114011581128111A8308B007A0883128D
:1001280003138100831603130C17831203130C1394
:10013800831603139F131F121F12831203131F1317
:100148009F171F14203083120313AA00AA0BAA2892
:100158000000831203139F140330831603178800CB
:100168008901FF30831603138500870188018901FF
:100178008312031385018601870188018901FF30F5
:10018800A2000030A3007808AA00AB012A08F300F7
:100198002B08F4006530F5000030F6000A128A11C9
:1001A80048210A128A11740883120313A5007308E0
:1001B800A4000A128A111D200A128A11831203133D
:1001C8002208623EAC002C08F900C3280A128A11E2
:1001D8000C28831203130C1FF228F32818290C1378
:1001E8001F0CF000700C0F39003A031DFC28FD2885
:1001F80006291E08F0007008F8001F08C3390438E3
:100208009F0011291F0CF000700C0F39013A031DD3
:100218000E290F291129C3309F052130F000F00B5A
:100228001329831203139F140B1D1B291C29412911
:10023800831603130C130B117A088312031381001E
:10024800AD01AE0188173029013083120313AD07C1
:100258000318AE0A0030AE072E08803A803C031D12
:1002680037292D08790203183A293B2928298312AE
:1002780003138813831603130C1772088A00710E70
:100288008300FE0E7E0E090083120313A001A10154
:10029800731C4F2950295829750883120313A00786
:1002A8000318A10A7608A10701300310F50DF60D11
:1002B800FF3E031D592901300310F40CF30CFF3ED7
:1002C800031D602973087404031D6B296C294C29CC
:1002D800831203132108F4002008F3000800643493
:04400E00D520FF3F7B
:00000001FF
