:060000000A128A110C280F
:10000800FE00030EF1000A08F2000A128A117D2888
:100018000A128A110F280A128A11CA200A128A1192
:10002800F800F601F70183010A128A111B288316CA
:1000380003130F168F160F1701148114011581125F
:100048008111A8308B00780883120313810083166E
:1000580003130C17831203130C13831603139F1334
:100068001F121F12831203131F139F171F1421300F
:10007800F300F30B3D28831203139F1403308316F8
:10008800031788008901FF30831603138500870151
:10009800880189018312031385018601870188017C
:1000A80089019430F3007308F600831203130816CD
:1000B8000430F5000C30F4003330F300F30B622801
:1000C800F40B6228F50B62286928831203130812BF
:1000D8000430F5000C30F4003330F300F30B7228D1
:1000E800F40B7228F50B7228792855280A128A1100
:1000F8000C28831203130C1F82288328A4280C13AE
:100108001F0CF000700C0F39003A031D8C288D2845
:1001180092281F08C33904389F009D281F0CF0003F
:10012800700C0F39013A031D9A289B289D28C3306B
:100138009F052130F000F00B9F28831203139F14B2
:100148000B1DA728A828C328831603130C130B110B
:1001580078088312031381008817B6280130F0004D
:100168007008F707770876020318BB28BC28B2285E
:10017800F701831203138813831603130C177208ED
:0E0188008A00710E8300FE0E7E0E09006434A4
:04400E00D520FF3F7B
:00000001FF
