:060000000A128A110C280F
:10000800FE00030EF1000A08F2000A128A11D8282D
:100018000A128A110F280A128A1111220A128A1149
:10002800FA00AE01AF01B001B101B201B301B401F0
:10003800B501B601F701F801F90183010A128A1125
:100048002528831603130F168F160F170114811412
:10005800011581128111A8308B007A0883120313CD
:100068008100831603130C17831203130C138316D2
:1000780003139F131F121F12831203131F139F17BB
:100088001F14203083120313AB00AB0B4928000068
:10009800831203139F1407308316031788008901FE
:1000A800FF308316031385008701880189018312B5
:1000B800031385018601870188018901FF30A200A9
:1000C8000030A3003608AB00AC012B08F3002C0865
:1000D800F4006530F5000030F6000A128A11E621B6
:1000E8000A128A11740883120313A5007308A40066
:1000F8000A128A117D210A128A1183120313220817
:10010800623EAD002D08F900FF30A2000030A300C8
:100118003508AB00AC012B08F3002C08F40065305F
:10012800F5000030F6000A128A11E6210A128A1137
:10013800740883120313A5007308A4000A128A1115
:100148007D210A128A11831203132208623EAD0030
:100158002D08F800FF30A2000030A3003408AB00DF
:10016800AC012B08F3002C08F4006530F5000030D2
:10017800F6000A128A11E6210A128A1174088312FB
:100188000313A5007308A4000A128A117D210A121C
:100198008A11831203132208623EAD002D08F7006E
:1001A80062280A128A110C28831203130C1FDD28F7
:1001B800DE2819290C131F0CF000700C0F39003AB7
:1001C800031DE728E828F1281E08F0007008B6008B
:1001D8001F08C33904389F0012291F0CF000700C47
:1001E8000F39013A031DF928FA2803291E08F000DF
:1001F8007008B5001F08C33908389F0012291F0C62
:10020800F000700C0F39023A031D0B290C29122932
:100218001E08F0007008B400C3309F052130F000BC
:10022800F00B1429831203139F140B1D1C291D297D
:100238007629831603130C130B117A088312031300
:100248008100B201B301B001B101AE01AF010814E0
:100258003529013083120313B2070318B30A00309B
:10026800B3073308803A803C031D3C2932087902E1
:1002780003183F2940292D298312031308108814D5
:100288004D29013083120313B0070318B10A003057
:10029800B1073108803A803C031D542930087802A0
:1002A800031857295829452983120313881008155C
:1002B8006529013083120313AE070318AF0A003013
:1002C800AF072F08803A803C031D6C292E0877025F
:1002D80003186F2970295D298312031308118316E7
:1002E80003130C1772088A00710E8300FE0E7E0E2F
:1002F800090083120313A801A31F832984298B29CA
:10030800A209A309A20A0319A30AA801A80AA51FFA
:100318008E298F299829A409A509A40A0319A50AD1
:100328000130A6002608A806A901AA01220823046C
:1003380003199F29A029D729A701A70AAE290130A7
:100348000310A20DA30DFF3E031DA4290130A60032
:100358002608A707A31FB129B229A3290130031032
:10036800A90DAA0DFF3E031DB32923082502031D6D
:10037800BF2922082402031CC229C329CA2922082A
:10038800A4022308031CA503A502291401300310A5
:10039800A30CA20CFF3E031DCB290130A702031DAD
:1003A800D629D729B22928080319DB29DC29E1290C
:1003B800A909AA09A90A0319AA0A2A08A300290847
:1003C800A200080083120313A001A101731CED29E8
:1003D800EE29F629750883120313A0070318A10A4A
:1003E8007608A10701300310F50DF60DFF3E031D39
:1003F800F72901300310F40CF30CFF3E031DFE290E
:1004080073087404031D092A0A2AEA2983120313AC
:0C0418002108F4002008F3000800643400
:04400E00D520FF3F7B
:00000001FF
