:060000000A128A110C280F
:10000800FE00030EF1000A08F2000A128A115728AE
:100018000A128A110F280A128A1185200A128A11D7
:10002800F40083010A128A111928831603130F1684
:100038008F160F1701148110011581128111A83034
:100048008B007408831203138100831603130C17A3
:10005800831203130C13831603139F131F121F120B
:10006800831203131F139F171F142130F300F30B80
:100078003B28831203139F1401308316031788004B
:100088008901FF30831603138500870188018901E0
:10009800831203138501860187018801890153288A
:1000A8000A128A110C28831203130C1F5C285D287E
:1000B80077280C131F0CF000700C0F39033A031D3E
:1000C800662867286C281F08C33910389F007028D5
:1000D8001F08C3390C389F002130F000F00B72283C
:1000E800831203139F140B1D7A287B287E280B117B
:1000F8007408810072088A00710E8300FE0E7E0E5D
:040108000900643452
:04400E00D520FF3F7B
:00000001FF
