:060000000A128A110C280F
:10000800FE00030EF1000A08F2000A128A11CA283B
:100018000A128A110F28FA0183010A128A11532938
:1000280083120313A501A11F1A281B282228A0093F
:10003800A109A00A0319A10AA501A50AA31F252839
:1000480026282F28A209A309A20A0319A30A013006
:10005800F9007908A506A601A701200821040319BB
:10006800362837286E28A401A40A45280130031031
:10007800A00DA10DFF3E031D3B280130F9007908B2
:10008800A407A11F482849283A2801300310A60DC3
:10009800A70DFF3E031D4A2821082302031D5628E9
:1000A80020082202031C59285A2861282008A20285
:1000B8002108031CA303A302261401300310A10C7A
:1000C800A00CFF3E031D62280130A402031D6D2809
:1000D8006E28492825080319722873287828A60944
:1000E800A709A60A0319A70A2708A1002608A0003D
:1000F8000800033083160317880089018316031349
:100108008701033085008601880183120313850166
:100118008601870188018901831603130F178F123F
:100128000F120F140C17831203130C1383160313E7
:100138009F131F121F12831203131F139F171F14DD
:100148000330F300F30BA628A928831203139F1486
:100158000B178B1704308700FF30831603139200A8
:100168003F3083120313970597151715971017102B
:100178009501CF3097058C109214121412158C1C0F
:10018800C628C728C3288C108701080083120313C8
:100198000C1FCF28D028F8280C131F0CF000700C67
:1001A8000F39003A031DD928DA28ED281E08F00077
:1001B8007008FA000719E128E528831203130814C8
:1001C800E8288312031308101F08C33904389F0056
:1001D800F8281F0CF000700C0F39013A031DF528A0
:1001E800F628F828C3309F050330F000F00BFA28F2
:1001F800FD28831203139F1472088A00710E83006E
:10020800FE0E7E0E0900FF3083120313A00000309B
:10021800A1007A08A800A9012808F3002908F40019
:100228001130F5000030F6000A128A112E210A1248
:100238008A11740883120313A3007308A2000A1218
:100248008A1114200A128A118312031320080F3E00
:1002580095000800F701F801731C332934293A295D
:100268007508F7070318F80A7608F807013003102D
:10027800F50DF60DFF3E031D3B2901300310F40C6C
:10028800F30CFF3E031D422973087404031D4D2916
:100298004E2930297808F4007708F30008000A127C
:1002A8008A117D200A128A110A128A1107210A125C
:0A02B8008A1158290A128A110C2835
:04400E00D420FF3F7C
:00000001FF
