:060000000A128A110C280F
:10000800FE00030EF1000A08F2000A128A111C28E9
:100018000A128A110F280A128A11BB200A128A11A1
:10002800F700F401F501F60183010A128A11782814
:10003800831203130C1F2128222843280C131F0C9A
:10004800F000700C0F39003A031D2B282C2831289A
:100058001F08C33904389F003C281F0CF000700C9F
:100068000F39013A031D39283A283C28C3309F0527
:100078002130F000F00B3E28831203139F140B1D50
:10008800462847287128831603130C130B11770889
:10009800831203138100C8307606031D542855289F
:1000A80056288814F401F501881760280130F407F0
:1000B8000318F50A0030F5077508803A803C031DDF
:1000C80067287408760203186A286B285A2883124E
:1000D80003138813831603130C1772088A00710E12
:1000E8008300FE0E7E0E0900831603130F168F166B
:1000F8000F1701148114011581128111A8308B008A
:100108007708831203138100831603130C178312D5
:1001180003130C13831603139F131F121F1283124A
:1001280003131F139F171F142130F300F30B9A2892
:10013800831203139F140330831603178800890161
:10014800FF30831603138500870188018901831214
:10015800031385018601870188018901881094307D
:10016800F3007308F600B2280A128A110C286434C6
:04400E00D520FF3F7B
:00000001FF
