:060000000A128A110C280F
:10000800FE00030EF1000A08F2000A128A11D32832
:100018000A128A110F280A128A110A220A128A1150
:10002800FA00AE01AF01B001B101F701F801F90121
:1000380083010A128A112028831603130F168F16BC
:100048000F1701148114011581128111A8308B003A
:100058007A08831203138100831603130C17831283
:1000680003130C13831603139F131F121F128312FB
:1000780003131F139F171F14203083120313AB00A1
:10008800AB0B44280000831203139F140730831618
:10009800031788008901FF30831603138500870141
:1000A800880189018312031385018601870188016C
:1000B8008901FF30A2000030A3003008AB00AC017A
:1000C8002B08F3002C08F400AF30F5000030F600E0
:1000D8000A128A11DF210A128A1174088312031383
:1000E800A5007308A4000A128A1176210A128A113F
:1000F8008312031322082A3EAD002D08F800FF30B2
:10010800A2000030A3002F08AB00AC012B08F300BD
:100118002C08F400AF30F5000030F6000A128A11FE
:10012800DF210A128A11740883120313A5007308C9
:10013800A4000A128A1176210A128A118312031363
:1001480022082A3EAD002D08F700FF30A20000303B
:10015800A3002E08AB00AC012B08F3002C08F40018
:10016800AF30F5000030F6000A128A11DF210A12BA
:100178008A11740883120313A5007308A4000A12D5
:100188008A1176210A128A118312031322082A3E41
:10019800AD002D08B1005D280A128A110C280B1D2C
:1001A800D628D7282E290B117A0883120313810029
:1001B800F9010814EF280130F0007008F907013040
:1001C800F0007008F9070130F9020130F0007008FA
:1001D800F9070130F902790878020318F428F5289C
:1001E800DF28831203130810F90188140B29013042
:1001F800F0007008F9070130F0007008F9070130C5
:10020800F9020130F0007008F9070130F9027908A5
:100218007702031810291129FB2883120313881069
:10022800F901081527290130F0007008F907013095
:10023800F0007008F9070130F9020130F000700889
:10024800F9070130F9027908310203182C292D2900
:1002580017290811831203130C1F332934296F2916
:100268000C131F0CF000700C0F39003A031D3D29C8
:100278003E2947291E08F0007008B0001F08C3393E
:1002880004389F0068291F0CF000700C0F39013AE0
:10029800031D4F29502959291E08F0007008AF0086
:1002A8001F08C33908389F0068291F0CF000700C1C
:1002B8000F39023A031D6129622968291E08F000D6
:1002C8007008AE00C3309F052130F000F00B6A299A
:1002D800831203139F1472088A00710E8300FE0EA6
:1002E8007E0E090083120313A801A31F7C297D2910
:1002F8008429A209A309A20A0319A30AA801A80A22
:10030800A51F872988299129A409A509A40A0319E1
:10031800A50A0130A6002608A806A901AA012208F4
:100328002304031998299929D029A701A70AA729DD
:1003380001300310A20DA30DFF3E031D9D290130BE
:10034800A6002608A707A31FAA29AB299C290130C4
:100358000310A90DAA0DFF3E031DAC292308250291
:10036800031DB82922082402031CBB29BC29C32960
:100378002208A4022308031CA503A502291401309E
:100388000310A30CA20CFF3E031DC4290130A702D1
:10039800031DCF29D029AB2928080319D429D52929
:1003A800DA29A909AA09A90A0319AA0A2A08A30085
:1003B8002908A200080083120313A001A101731CDD
:1003C800E629E729EF29750883120313A007031804
:1003D800A10A7608A10701300310F50DF60DFF3EBE
:1003E800031DF02901300310F40CF30CFF3E031D2C
:1003F800F72973087404031D022A032AE3298312C8
:0E04080003132108F4002008F30008006434F8
:04400E00D520FF3F7B
:00000001FF
