:060000000A128A110C280F
:10000800FE00030EF2000A08F3000A128A113F28C4
:100018000A128A110F28F001F10183010A128A11CC
:100028001528831603130F168F160F17E8308B0049
:1000380098161812831203139817181683160313A9
:100048008C16831203138C120C3083160313990039
:100058008316031788018901831603138601880113
:1000680083120313850186018701880189013B28D2
:100078000A128A110C28831203138C1E442845285F
:100088004C288C121A08860006089900203099001E
:0E00980073088A00720E8300FE0E7E0E0900B1
:04400E00D520FF3F7B
:00000001FF
